:020000040800F2
:10000000B0050020A9010008131E00087F1B00088E
:10001000111E0008570700082923000800000000EF
:10002000000000000000000000000000611E000849
:1000300059070008000000005F1E0008631E00084A
:10004000C3010008C3010008C3010008C301000880
:10005000C3010008C3010008C3010008C301000870
:10006000C3010008C3010008C3010008C301000860
:10007000C3010008C3010008C3010008C301000850
:10008000C3010008C3010008C3010008000000000C
:10009000000000000000000000000000C301000894
:1000A0000D1F0008C3010008C3010008C3010008B8
:1000B000291F0008351F0008C3010008C3010008FC
:1000C000C3010008C3010008C3010008C301000800
:1000D000C3010008C3010008C301000800000000BC
:1000E000C3010008C3010008C301000800000000AC
:1000F000000000000000000000000000C301000834
:1001000000000000C3010008C3010008C30100088B
:1001100000000000000000000000000000000000DF
:10012000C3010008C3010008C3010008C30100089F
:10013000C3010008000000000000000000000000F3
:10014000000000000000000000000000C3010008E3
:10015000C3010008C3010008C3010008C30100086F
:10016000C3010008C30100080000000000000000F7
:10017000000000000000000000000000000000007F
:1001800000000000C30100080000000000000000A3
:10019000C3010008DFF80CD000F05CFA004800470B
:1001A000392C0008B0050020064880470648004763
:1001B000FEE7FEE7FEE7FEE7FEE7FEE7FEE7FEE717
:1001C000FEE7FEE7FD1E0008950100082DE9F05F3F
:1001D0000546002092469B468846064681464024B6
:1001E0001BE0284641464746224600F06AF853463F
:1001F0005A46C01A914110D311461846224600F0C3
:1002000051F82D1A67EB01084F46224601200021C4
:1002100000F048F817EB00094E41201EA4F101043C
:10022000DFDC484631462A464346BDE8F09FD2B25D
:1002300001E000F8012B491EFBD270470022F6E7CF
:1002400010B513460A4604461946FFF7F0FF20464C
:1002500010BD00F0004230F000400AD0C10D01F5A1
:100260006071C0F3160042EA0151C2084007114311
:10027000704700200146704730B50B46014600200C
:100280002022012409E021FA02F59D4205D303FA58
:1002900002F5491B04FA02F52844151EA2F10102D9
:1002A000F1DC30BD202A04DB203A00FA02F1002004
:1002B00070479140C2F1200320FA03F319439040A4
:1002C0007047202A04DB203A21FA02F0002170470F
:1002D00021FA02F3D040C2F12002914008431946AE
:1002E00070472DE9FE4F804681EA0300C00F0C469F
:1002F000009021F0004123F00045B8EB0200A94135
:1003000005D24046214690461C460B46024623F045
:100310000040104347D0270DC7F30A00C3F30A512A
:100320000290401A019040286BDAC3F3130040F4A6
:10033000801B0098924620B10023D2EB030A63EBA6
:100340000B0B01985946C0F140025046FFF7AAFF37
:1003500006460D4650465946019A00F08DF910EBBD
:1003600008006141002487EA115284EAE7731A43C6
:1003700040D0009A62B3019A012A4FEA075215DC75
:10038000001B61EB02014FF0004202EA0752CDE987
:100390000042001C41F5801132462B4600F08DF9D9
:1003A00003B0BDE8F08F40462146F9E7001B61EB42
:1003B0000201001C41F5801300185B412018A2F5D2
:1003C000001747EB030140EAD570B6196D4111E003
:1003D0006D084FEA360645EAC0754FEA0752001B22
:1003E00061EB0201001C41F5801149084FEA300021
:1003F0000019514132462B4603B0BDE8F04F00F0E2
:100400004DB90098012240000023D0EB020263EBBB
:10041000E073009821464FEAE074B8EB000061EB0E
:100420000401E9E783F000435BE781F0004158E70E
:100430002DE9FE4F81EA030404F0004421F000415D
:1004400000944FF0000B23F0004350EA01045ED00B
:1004500052EA03045BD0C3F30A54C1F30A552C4497
:10046000A4F2F3340194A0FB0254C1F3130141F44C
:100470008011C3F3130343F4801301FB024400FB18
:10048000034E840A970A44EA815447EA8357A4FB3F
:10049000076802958D0A05FB07854FEA932C04FB3C
:1004A0000C542705029D4FEA065847EA1637B5EB6C
:1004B00008056EEB070C870E920E47EA811742EA99
:1004C0008312A7FB0201B6EB0B0164EB00042B0DBA
:1004D00043EA0C335E1844EB1C50DA465146E7FB06
:1004E0000201C5F313044FEA0B3343EA14534FEAF6
:1004F0000432019C43EA0603A4F10C040294009C1C
:10050000CDE900B400F0D9F803B0BDE8F08F0020C9
:100510000146F9E72DE9F04D81EA030404F0004BB0
:1005200021F0004514464FF0000A23F0004150EA44
:10053000050220D054EA01021DD0C5F30A57024635
:10054000C5F31303C1F31300C1F30A5640F4801539
:1005500043F48013A7EB0608101BD64608F2FD38BB
:1005600073EB050002D308F1010801E092185B412A
:10057000B8F1000F03DA00200146BDE8F08D00203D
:100580004FF48011064684460EE0171B73EB0507F7
:1005900005D3121B63EB050306434CEA010C490823
:1005A0004FEA300092185B4150EA0107EDD152EA60
:1005B000030012D082EA040083EA0501084305D053
:1005C000101BAB4106D20122002306E000224FF0AF
:1005D000004302E06FF0010253101AEB06004CEBEF
:1005E000085110EB0A0041EB0B01BDE8F04D00F0A3
:1005F00055B8C1F30A52C1F3130140F2FF3341F47D
:1006000080119A4202DA00200146704740F23343DB
:100610009A42A2F2334202DC5242FFF752BEFFF787
:1006200041BE000030B5041E71F1000404DB4FF040
:100630000044404264EB0101141E73F1000405DB29
:100640001C464FF00043524263EB0403994208BF3B
:10065000904230BD064C074D06E0E06840F00103D3
:1006600094E8070098471034AC42F6D3FFF796FDA4
:10067000D42C0008F42C0008202A06DBCB17203AE3
:1006800041FA02F043EAE07306E041FA02F3D04097
:10069000C2F12002914008431946704710B5141E5C
:1006A00073F1000408DA401C41F1000192185B412B
:1006B0001A4301D120F0010010BD2DE9F04D924602
:1006C0009B4611B1B1FA81F202E0B0FA80F2203219
:1006D0009046FFF7E7FD04460F4640EA0A0041EA6C
:1006E0000B0153465A46084313D0114653EA010002
:1006F00019D0C8F140025046FFF7E3FD05460E460B
:10070000504659464246FFF7CDFD084305D001202B
:1007100004E020463946BDE8F08D0020054346EA56
:10072000E0762C4337430A986305E40AA0EB0800FF
:100730000022FD0A44EA47540A3002D5002001464F
:10074000E9E7010510196941DDE90845001969412A
:10075000BDE8F04DA2E7FEE7704772B6FEE7000085
:1007600008480068406A9FED081A00B200EE100ABF
:10077000F8EEC00A80EE810ADFED040A20EE200ABE
:1007800070470000940000200000FF440000B443C4
:100790000B480168486A002200B24A6200EE100A63
:1007A0009FED081AB8EEC00AC0EE010A9FED060AD6
:1007B00020EE800ADFED050A20EE200A70470000D7
:1007C000940000200000FF440000C8420000704276
:1007D00070B5044600F0FEF80546601C02D00448DF
:1007E0000078044400F0F6F8401BA042FAD370BD34
:1007F000380000202DE9F84FDFF8B8A100220124CD
:1008000003254FF00F090AF1040BAAF1040E00BFF3
:100810000B6804FA02F63340B34273D10F7907F044
:100820000307012F01D0022F16D187684FEA420833
:1008300005FA08FC27EA0C07D1F80CC00CFA08FCF2
:100840004CEA070CC0F808C04768B7430E79C6F3F6
:10085000001696403E4346600E79F643B6070DD02B
:10086000C768560005FA06FC27EA0C07D1F808C04D
:100870000CFA06FC4CEA070CC0F80CC00E7906F026
:100880000306022E10D1D60800EB8608D8F82060A7
:1008900057074FEAD76C09FA0CF7BE430F6907FAFE
:1008A0000CF73743C8F8207006684FEA420C05FA87
:1008B0000CF7BE430F7907F0030707FA0CF737432D
:1008C00007604E6816F4403F6DD03B4E376847F4E2
:1008D00080473760366822F0030706F480460096AA
:1008E000364E07EB060CDCF8086897073F0F09FA4D
:1008F00007F826EA0806DFF8C880404503D14FF024
:1009000000081EE04FE0DFF8BC80404502D14FF008
:10091000010816E0DFF8B080404502D14FF0020830
:100920000FE0DFF8A880404502D14FF0030808E04F
:10093000DFF89C80404502D14FF0040801E04FF001
:10094000070808FA07F848EA0608CCF80888DAF831
:1009500000605746D1F804C09E435FEACC2C00D516
:100960001E433E60DBF800605F46D1F804C09E4342
:100970005FEA8C2C00D51E433E60DEF800607746AF
:10098000D1F804C09E435FEA8C3C00D51E433E6014
:10099000084F083F3E68D1F804C09E435FEACC3C54
:1009A00000D51E433E60521C102AFFF431AFBDE853
:1009B000F88F0000083C01404438024000300140FC
:1009C000000002400004024000080240000C024007
:1009D0000010024001488068704700003800002085
:1009E0000248816802781144816070473800002015
:1009F0000B4810B5016841F400710160016841F4D1
:100A000080610160016841F480710160032000F0A1
:100A10006FF80F2000F006F800F024F8002010BD59
:100A2000003C024070B50D4D04464FF47A712878B1
:100A3000B1FBF0F00A490968B1FBF0F000F00CFBE3
:100A400048B9102C07D200222146501E00F030F881
:100A500000206C6070BD012070BD000038000020D7
:100A6000440000200A4808B5016841F48041016053
:100A7000006800F4804000900548001F016841F0C4
:100A800080510160006800F08050009008BD0000B7
:100A900044380240002809DB00F01F020121914088
:100AA0004009800000F1E020C0F80011704700000C
:100AB000F0B40E4B1B680C46C3F30223C3F10705C9
:100AC000042D00D90425191D072901D2002300E0B7
:100AD000DB1E012606FA05F1491E214099409E4081
:100AE000761E16403143F0BC01F030BC0CED00E046
:100AF000064900F0070208684FF6FF03184040EA75
:100B00000220034A10430860704700000CED00E02B
:100B10000000FA052DE9F0470E46050065D0DFF824
:100B20001481D8F80000F7B200F00700B04207D2F5
:100B300088F80070D8F8000000F00700B04254D1E7
:100B400028683D4C810712D5400703D5206840F442
:100B5000E05020602878000703D5206840F460400A
:100B600020602068A96820F0F00008432060287801
:100B7000C0072DD0304968680839012812D00228F2
:100B800013D0032811D00968890700292DDA2168BC
:100B900021F0030101432160FFF71CFF814641F270
:100BA000883A0EE009688903EFE709688901ECE7F4
:100BB000FFF710FFA0EB0901514502D90320BDE862
:100BC000F0872068696800F00C00B0EB810FEFD16E
:100BD000D8F80010404601F00701B14207D907706C
:100BE000006800F00700B04201D00120E7E7287854
:100BF000400705D52068E96820F4E05008432060EC
:100C00002878000706D52068296920F4604040EA6A
:100C1000C100206000F038F82168084AC1F30311D0
:100C2000515CC8400649086006480068FFF7FAFEB4
:100C30000020C4E7003C024008380240BC2C0008F9
:100C4000440000203C000020044805490068096871
:100C5000044AC1F38221515CC8407047440000201F
:100C600008380240CC2C000804480549006809688F
:100C7000044AC1F34231515CC8407047440000202F
:100C800008380240CC2C0008154810B5006810F058
:100C90000C02144813D01449042A0FD0082A0ED18C
:100CA0000F4C241F2268236802F03F025B0207D525
:100CB0002068C0F38810A0FB010106E0084610BDC3
:100CC0002168C1F38811A1FB00010023FFF77EFA20
:100CD0002168C1F30141491C4900B0FBF1F010BD8E
:100CE000083802400024F40040787D012DE9F84FD7
:100CF00004006ED02078DFF84C93C007A9F10405FA
:100D00004AD009F104000168C1F38101012908D02A
:100D10000068C0F3810002280AD1D9F8000040021F
:100D200006D52868800337D560680028E1D033E015
:100D30006068B0F5803F10D0B0F5A02F286810D0C3
:100D400020F480302860286820F4802028606068C3
:100D5000A8B1FFF73FFE06460DE0286840F480305A
:100D6000F4E740F480202860F7E700BFFFF732FE89
:100D7000801B642873D828688003F7D50CE0FFF740
:100D800029FE064605E000BFFFF724FE801B64280D
:100D9000F0D828688003F7D42078DFF8AC82800789
:100DA0004FF0000A3ED5A748001D016811F00C0F56
:100DB00008D00068C0F3810002280BD1D9F80000E8
:100DC000400207D42868800716D5E068012800D1C2
:100DD00012E033E1E068B8B10120C8F80000FFF785
:100DE000F9FD064605E000BFFFF7F4FD801B022871
:100DF000C0D828688007F7D52868216920F0F80056
:100E000040EAC10028600DE0C8F800A0FFF7E2FD4D
:100E1000064604E0FFF7DEFD801B02281FD8286885
:100E20008007F7D42078000722D5864F874861696C
:100E3000703771B101210160FFF7CCFD064604E077
:100E4000FFF7C8FD801B022809D838688007F7D54E
:100E50000EE0C0F800A0FFF7BDFD064605E082E009
:100E6000FFF7B8FD801B02287DD838688007F7D4CB
:100E70002078400768D5DFF8CCB100270BF13C0B98
:100E8000DBF80000C0000BD4DBF8001041F080510B
:100E9000CBF80010DBF80000012700F08050009034
:100EA0006B4E3068C00510D4306840F480703060FC
:100EB000FFF790FD009005E0FFF78CFD0099401AC8
:100EC000022850D83068C005F6D55E4EA0686C3652
:100ED00001280FD00528306810D020F001003060C4
:100EE000306820F004003060A068B8B1FFF772FDF0
:100EF00000900FE0306840F00100F4E740F004009B
:100F00003060F7E7FFF766FD0099411A41F288303B
:100F1000814266D830688007F4D50EE0FFF75AFDAD
:100F2000009007E0FFF756FD0099411A41F2883022
:100F3000814256D830688007F4D42FB1DBF8001016
:100F400021F08051CBF80010A069C8B33D49091DBC
:100F50000968C1F3810102294AD00228504607D00E
:100F6000C8F8600000E03CE0FFF734FD04463BE0D9
:100F70004746C8F86000FFF72DFD064605E000BFB4
:100F8000FFF728FD801B02282BD828688001F7D4A2
:100F9000D4E907010843A16A2E4A490802EB01413E
:100FA000626A41EA8211084394F82C1040EA016118
:100FB000C9F8001001203866FFF70CFD044606E072
:100FC0003EE000BFFFF706FD001B022809D8286895
:100FD0008001F7D534E000BFFFF7FCFC001B0228BE
:100FE00002D90320BDE8F88F28688001F4D427E0F7
:100FF0000128F7D0D9F80000E26900F4800191429D
:101000001CD1226A00F03F01914217D147F6C0710E
:10101000626A0140B1EB821F10D1A26A4FF0FF3328
:1010200000F4403103EB5202B1EB024F06D194F8C9
:101030002C1000F07060B0EB016F01D00120D1E7FF
:101040000020CFE70438024000004742800E4742AC
:10105000007000400000FFFF10B5401EB0F1807F1F
:1010600001D3012010BD4FF0E02460610F21601713
:1010700001F06CF90020A06107202061002010BD64
:101080007047704710B590F83C20012A22D0012209
:1010900080F83C20CA688C6822F4407222434C6875
:1010A00022F4806222430C6822F4006222430C691D
:1010B00022F4805222434C6922F400522243C9692F
:1010C000002322F480420A4301684A6480F83C30DD
:1010D000002010BD022010BD70B590F83C20012A00
:1010E0002CD0012480F83C40022280F83D20036887
:1010F0005A689D6822F070060A6832435A60104BA5
:1011000002689A420ED0B2F1804F0BD00D4B9A423A
:1011100008D00D4B9A4205D00C4B9A4202D00C4B92
:101120009A4204D1496825F080031943916080F800
:101130003D40002180F83C10084670BD022070BD83
:10114000000001400004004000080040000C004086
:101150000040014010B5040003D094F83D0010B1E8
:1011600007E0012010BD002084F83C00204600F07C
:101170001FF8022084F83D00211D206800F0E0FEE9
:10118000012084F8460084F83E0084F83F0084F88B
:10119000400084F8410084F8420084F8430084F859
:1011A000440084F8450084F83D00002010BD000094
:1011B00008B51B4A01681B48914207D1016841F0FC
:1011C00001010160006800F001001DE0164A914233
:1011D00010D11448001F016841F00201016000684D
:1011E000002200F00200009001211D20FFF760FCAA
:1011F0001D2010E00D4A914211D1016841F4803167
:101200000160006800F48030009000220221182064
:10121000FFF74EFC1820BDE80840FFF73BBC08BDB7
:1012200000000140443802400004004000400140FA
:1012300090F83D10012901D001207047022180F86B
:101240003D1000680E4988420ED0B0F1804F0BD09F
:101250000C49884208D00C49884205D00B49884285
:1012600002D00B49884204D1816801F007010629A8
:1012700003D0016841F001010160002070470000C7
:10128000000001400004004000080040000C004045
:101290000040014090F83D10012901D00120704725
:1012A000022180F83D100168CA6842F00102CA605C
:1012B00000680E4988420ED0B0F1804F0BD00C4927
:1012C000884208D00B49884205D00B49884202D099
:1012D0000A49884204D1816801F00701062903D038
:1012E000016841F0010101600020704700000140E9
:1012F0000004004000080040000C00400040014095
:1013000070B5044690F83C000025012817D001264E
:1013100084F83C60022084F83D002068826822F056
:10132000770222F47F4282600868502838D00DDCB2
:1013300020284FD005DC90B3102811D14AE00220BC
:1013400070BD302846D040280AD13BE060282FD01D
:1013500070280DD0B0F5805F03D0B0F5005F12D0DB
:10136000012584F83D60002084F83C00284670BDCB
:10137000CB68D1E90121206800F03BFE206881683C
:1013800041F0770109E0CB68D1E90121206800F044
:1013900030FE2068816841F480418160E1E719E016
:1013A000CA684968206800F0D9FE5021206806E02C
:1013B000CA684968206800F0E2FE6021206800F0F9
:1013C00022FECEE7CA684968206800F0C7FE4021C7
:1013D0002068F4E7226801461046F0E72DE9F04165
:1013E0000D46040003D094F83D0018B108E0012038
:1013F000BDE8F081002084F83C00204600F040F871
:10140000022084F83D002068816844F2070291437D
:101410008160211D206800F093FD22689068916929
:10142000166A2B68AF69034340F20330814341EAF7
:101430000721A868EF6908434FF6FC418843E96833
:1014400040EA0720014328692F6A000140EA07307B
:10145000084369686D6926F0AA0646EA051529431E
:1014600093602268906154F8460B0162012004F8F1
:101470001F09E0752076E0762077A0750020B7E799
:1014800010B586B0044614216846FEF7D7FE2068E2
:10149000B0F1804F26D11448016841F0010101608C
:1014A000006800F0010005900F481038016841F015
:1014B000010101600068022100F001000590032095
:1014C000CDE900010121CDE90210049169460748E8
:1014D000FFF790F9002211461C20FFF7E9FA1C20C3
:1014E000FFF7D8FA06B010BD4038024000000240B5
:1014F00070B590F83E60044690F83F5090F8423046
:1015000090F84320022021B104290ED0012E1BD1D6
:1015100014E0012E18D1012B16D184F83E0084F876
:10152000420001220021206820E0012D0CD1012A77
:101530000AD184F83F0084F8430014E0012D03D160
:10154000012B01D1012A01D0012070BD84F83E0099
:1015500084F83F0084F8420084F84300012200210F
:10156000206800F039FD01220421206800F034FDDC
:101570002068016841F001010160002070BD7047E2
:1015800070B50446006801694FF00005C94389073A
:1015900015D4C168C943890711D4E91E016101202E
:1015A0002077206880698007204602D0FFF7E7FF98
:1015B00004E000F0C3F8204600F055F925772068D4
:1015C0000169C943490717D4C168C943490713D4FE
:1015D0006FF004010161022020772068806910F417
:1015E000407F204602D0FFF7CAFF04E000F0A6F8D3
:1015F000204600F038F9257720680169C9430907BA
:1016000016D4C168C943090712D46FF008010161FB
:10161000042020772068C0698007204602D0FFF7A9
:10162000AEFF04E000F08AF8204600F01CF92577B0
:1016300020680169C943C90617D4C168C943C906EE
:1016400013D46FF010010161082020772068C06971
:1016500010F4407F204602D0FFF791FF04E000F035
:101660006DF8204600F0FFF8257720680169C9432E
:10167000C90708D1C168C943C90704D1891E0161DE
:10168000204600F049F920680169C943090609D4D8
:10169000C168C943090605D46FF080010161204685
:1016A000FFF7EEFC20680169C943490609D4C16807
:1016B000C943490605D46FF040010161204600F09E
:1016C0009FF920680169C94389060BD4C168C943E1
:1016D000890607D46FF0200101612046BDE8704003
:1016E000FFF7CFBC70BD000010B586B004461421D2
:1016F0006846FEF7A3FD0E492068884216D10D48C2
:10170000016841F0010101600068032100F001005F
:1017100005904FF440700090022001900120CDE927
:101720000201049069460448FFF764F806B010BD52
:10173000000001403038024000000240704770B5A0
:10174000044690F83C0000260D4601280FD00120E9
:1017500084F83C006AB1042A1DD0082A2FD00C2A34
:101760003FD00126002084F83C00304670BD0220A6
:1017700070BD206800F050FC2068816941F00801CC
:1017800081612068816921F004018161206881699B
:101790002A69114311E0206800F066FC2068816925
:1017A00041F4006181612068816921F48061816177
:1017B000206881692A6941EA02218161D2E72068B3
:1017C00000F07EFC2068C16941F00801C161206819
:1017D000C16921F00401C1612068C1692A6911430E
:1017E00011E0206800F098FC2068C16941F40061B4
:1017F000C1612068C16921F48061C1612068C1694B
:101800002A6941EA0221C161ACE710B5040003D0A6
:1018100094F83D0010B107E0012010BD002084F8CD
:101820003C00204600F01EF8022084F83D00211DF7
:10183000206800F085FB012084F8460084F83E0013
:1018400084F83F0084F8400084F8410084F84200A6
:1018500084F8430084F8440084F8450084F83D008F
:10186000002010BD7047704710B50446022249B1F0
:1018700004290ED0082913D094F84100012816D06D
:10188000012010BD94F83E000128F9D184F83E20D3
:101890000FE094F83F000128F2D184F83F2008E0DF
:1018A00094F840000128EBD184F8402001E084F84E
:1018B00041200122206800F08FFB124920688842F5
:1018C00003D1426C42F400424264206888420ED048
:1018D000B0F1804F0BD00C49884208D00B498842A8
:1018E00005D00B49884202D00A49884204D1816858
:1018F00001F00701062903D0016841F001010160F0
:10190000002010BD0000014000040040000800401D
:10191000000C0040004001407CB5304988425BD05B
:101920002F49884258D1FEF71BFF2E4CD4ED010AF7
:1019300030EE200A84ED010AFEF72AFFB0EE403AAD
:1019400094ED000A04F12000F8EEC00A94ED010ABB
:1019500000F060FABDEEC00A234910EE100A00B292
:1019600000EE100A04F12000F8EEC00AC0688842B8
:1019700002DDDFED1E0A04E01D49884201D9DFEDDA
:101980001D0A1848B0EE430A083000F043FABDEED5
:10199000C00A41F2883110EE100A00B2884202DC1F
:1019A0004942884200DA084601F070F994ED000AD5
:1019B000B8EEC00A10EE100AFEF74BFC05460E46C4
:1019C0006068FEF746FC41EC100BCDE9005653EC85
:1019D000102B09A000F0AAFC7CBD000094000020A0
:1019E000DC000020000000200000B443000096430B
:1019F0000000B4C3000096C325662C25660D0A00BE
:101A0000704770B5040004D094F83D00002510B173
:101A100006E0012070BD84F83C50204600F022F81A
:101A2000242084F83D002068C16821F40051C16081
:101A3000204600F0B7FB2068016921F49041016164
:101A40002068416921F02A0141612068C16841F4A0
:101A50000051C1602564202084F83D0084F83E00D8
:101A6000002070BD10B586B0044614216846FEF70C
:101A7000E5FB13492068884220D112480021026802
:101A800042F010020260006800F0100005900D485E
:101A90001438026842F002020260006800F002009E
:101AA0000590C02000900220CDE9010103200390A1
:101AB0000720049069460448FEF79CFE06B010BD5E
:101AC0000010014044380240000402402DE9F84370
:101AD000044690F83D001F4616460D4620284CD17E
:101AE000C5B1BEB194F83C00012846D0012084F86D
:101AF0003C004FF00008C4F84080212084F83D00ED
:101B0000FEF768FFA6848146E684A068B0F5805F92
:101B100003D004E00120BDE8F883206928B12E46F7
:101B20005FF0000584F83C800EE00026FAE7802193
:101B3000204600F0BDFBA0B9AEB116F8010B21683C
:101B40004860E08C401EE084E08C4B464FF0000281
:101B500000970028EBD14FF04001204600F0A8FB91
:101B600030B10320D7E735F8020BC0F30800E6E7F1
:101B7000202084F83D000020CDE70220CBE7FEE7DF
:101B80000D4808B5016841F080010160016801F06D
:101B900080010091016841F001010160016801F0DC
:101BA00001010091016841F002010160006800F04C
:101BB0000200009008BD00003038024010B596B019
:101BC00000240F9410941194129413941C216846CD
:101BD0001494FEF733FB202107A8FEF72FFB2F48B4
:101BE0002D4901600821C0E9011441F28831C0E9A2
:101BF000031444618461FFF7ADFA08B1FEF7ADFD4F
:101C00004FF480500F900FA92448FFF779FB08B1DB
:101C1000FEF7A3FD2148FFF7F8FD08B1FEF79DFD93
:101C2000139413A91D481494FFF756FA08B1FEF750
:101C300094FD6020CDE9000402940394049405947B
:101C40000022694615480694FFF779FD08B1FEF7B2
:101C500084FD042269461148FFF771FD08B1FEF7C3
:101C60007CFD0794089409944FF400500A94CDE940
:101C70000B4007A909480E94FFF704FA08B1FEF7D4
:101C80006CFD0648FFF706FB0448FFF7D1FA03484E
:101C9000FFF72AFD16B010BD000001404C000020E7
:101CA00010B58CB024216846FEF7C8FA0024194804
:101CB00009944FF080410A94C0E90014611EC0E904
:101CC0000241046184610320CDE900040120CDE9D3
:101CD00002040494CDE90540079469460D48089430
:101CE000FFF77CFB08B1FEF738FD099409A9094804
:101CF0000A94FFF7F1F908B1FEF72FFD3C210548E2
:101D0000FFF7F6FB0348FFF7C5FA0248FFF790FA22
:101D10000CB010BD9400002010B586B00024194806
:101D2000009401940294039404941549059401606D
:101D30005321C0E9011442F21071C0E90314846117
:101D4000FFF708FA08B1FEF708FD4FF48050009045
:101D500069460C48FFF7D4FA08B1FEF7FEFC04947C
:101D600004A908480594FFF7B7F908B1FEF7F5FC98
:101D70000448FFF78FFA0348FFF75AFA06B010BD80
:101D800000040040DC0000201FB500211148009134
:101D9000019102910E4A039102605322C0E9012190
:101DA0004FF6FF72C0E9032180218161FFF7D2F96C
:101DB00008B1FEF7D2FC4FF4805000906946054808
:101DC000FFF79EFA002801D0FEF7C7FC1FBD0000F8
:101DD00000400140240100200C4810B50A49016070
:101DE0004FF4E1314160002181600C22C160C0E903
:101DF00004128161C161FFF704FE002803D0BDE831
:101E00001040FEF7AABC10BD001001406C0100207C
:101E1000FEE7FEE770EEC00A90ED031AF0EE001A3E
:101E2000D0ED002AB0EE600A30EEC12A01EE610A60
:101E3000D0ED041A70EE211A90ED050A02EE820A26
:101E400090ED012A02EE200A90ED022A80ED041A9C
:101E5000C0ED030A02EE210A80ED050A70477047C3
:101E60007047FEF7BDBD000030B593B03021684625
:101E7000FEF7E4F914210CA8FEF7E0F91D4800254F
:101E8000016841F080510160006800F080501190BD
:101E90001948016821F4404141F4004101600068A3
:101EA000022400F4404011900120009000040190B1
:101EB0008001CDE9064019200890A820CDE9090449
:101EC00004200B906846FEF711FF08B172B6FEE7DA
:101ED0000CA90F2081E831004FF48050CDE90F05A7
:101EE00002210CA8FEF716FE002801D072B6FEE70C
:101EF00013B030BD40380240007000400248016815
:101F000041F470010160704788ED00E010B50448AD
:101F1000FFF736FBBDE810400248FFF731BB000079
:101F20004C000020240100200148FFF729BB0000DD
:101F3000940000200148FFF723BB0000DC000020D4
:101F4000F0B502681D4B1E4C9F031E4D1E4E98425D
:101F500007D0B84205D0A04203D0A84201D0B04279
:101F600004D122F0700C4A6842EA0C02984210D068
:101F7000B8420ED0A0420CD0A8420AD0B04208D03D
:101F8000124CA04205D0124CA04202D0114CA042EB
:101F900003D122F44074CA6822434C6922F08002C3
:101FA000224302608A68C2620A688262984201D152
:101FB0000969016301214161F0BD00000000014099
:101FC0000004004000080040000C004000400140B8
:101FD000004401400048014010B501F01F030121F9
:101FE000046A99408C430462016A9A401143016279
:101FF00010BD10B5846842EA032224F47F440A43EA
:102000002243826010BD826822F070020A4342F0CF
:10201000070181607047000030B5026A22F00102BA
:102020000262026A4368846924F073050C682C43D9
:1020300022F002058A682A430A4DA8420BD122F0F9
:102040000805CA6823F440732A434D6922F004024C
:102050001D438B692B43436084614968416302627D
:1020600030BD00000000014030B5026A22F01002CD
:102070000262026A436884690D6824F4E64444EA13
:1020800005248D6822F0200242EA05120B4DA84279
:102090000ED1CD6822F0800242EA05124D6923F488
:1020A000406343EA85038D6922F0400243EA8503D9
:1020B0004360846149688163026230BD0000014071
:1020C00030B5026A22F480720262036A4268C4690F
:1020D00023F4007324F073050C682C438D6843EAE5
:1020E00005230C4DA8420ED1CD6823F4006343EACA
:1020F00005234D6922F4405242EA05128D6923F40A
:10210000806342EA05124260C4614968C1630362A8
:1021100030BD00000000014030B5026A22F4805258
:102120000262046A4268C3690D6823F4E64343EA25
:1021300005238D6824F4005444EA0534064DA84272
:1021400004D14D6922F4804242EA85124260C361A3
:1021500049680164046230BD0000014010B5036AA3
:10216000046A24F001040462846924F0F00444EA5F
:10217000021423F00A020A438461026210BD10B502
:10218000036A23F0100303628369046A23F4704333
:1021900043EA023224F0A00343EA011182610162A2
:1021A00010BD000070B5044600680169E26821F4C2
:1021B0004051114301612169A068E26908436169E6
:1021C000114308432168CA6849F20C639A430243E9
:1021D000CA6020684169A26921F4407111434161DC
:1021E00031492068884202D03049884202D1FEF746
:1021F0003BFD01E0FEF728FDE2690023192164257B
:102200003226B2F5004F626828D0A0FB0101930F7F
:102210009200FDF7DBFF0146B0FBF5F06FF018020E
:10222000504301EB800006EB0010B0FBF5F000F02E
:10223000F002B1FBF5F002EB0012B1FBF5F06FF02C
:102240001803584301EB800006EB0010B0FBF5F0DB
:1022500000F00F0021681044886070BDA0FB0101F0
:1022600092185B41FDF7B2FF0146B0FBF5F00201A9
:10227000B1FBF5F06FF01803584301EB800006EB5B
:10228000C000B0FBF5F000F0F80002EB4002B1FB3B
:10229000F5F0584301EB800006EBC000B0FBF5F011
:1022A00000F00700D6E700000010014000140140D4
:1022B0002DE9F041984617460E460446069D27E054
:1022C000681C25D02DB1FEF785FBA0EB0800A842C5
:1022D0001ED920680C3050E8001F21F4D07140E86E
:1022E0000012002AF5D12068143050E8001F21F0B8
:1022F000010140E80012002AF5D1202084F83D00B9
:1023000084F83E00002084F83C000320BDE8F08102
:102310002068006836EA000004D00020B842CFD020
:102320000020F3E70120F9E7FEE700000FB4054BBA
:1023300010B503A9044A029800F0DAF810BC5DF861
:1023400014FB0000212C0008480000200907090E9A
:10235000002804DB00F1E02080F80014704700F052
:102360000F0000F1E02080F8141D704702E008C85B
:10237000121F08C1002AFAD170477047002001E0FF
:1023800001C1121F002AFBD1704700002DE9FF5F39
:10239000DDE90220010DDDF838B0024318D044F623
:1023A0001050A1F2FF3141430D140F98012820D0A5
:1023B000A5EB0B00401C5FEA000A4FF00004474EFB
:1023C000DFF81C91A046504616D5CAF1000728E058
:1023D0000F98012443A2012808D0002100980F9BE8
:1023E000C0E90021C0E90243BDE8FF9F6FEA0B018D
:1023F000F4E7CBF10000DEE7074612E0F80707D06C
:102400002246334640464946FEF712F88046894642
:102410002246334610461946FEF70AF804460E4691
:102420007F10002FEAD1DDE90201BAF1000F424628
:102430004B4602DAFDF7FCFF01E0FEF76BF80446BD
:102440000E460022284BFEF7EDF803D84FF0FF3080
:10245000014607E00022254B20463146FDF741FFAB
:10246000FEF7C7F8102409E0002C0ADB0A2200233B
:10247000FDF7ACFE019B30321A55641E50EA010292
:10248000F2D1641C019AC4F1110314440F9A012A79
:1024900003D0012208430DD10AE0084304D00020F4
:1024A0004FF0110B0F9080E7A3EB0B056D1E0DE0B5
:1024B0005B4504DD4FF0000205F1010504E003DA9D
:1024C0004FF00002A5F10105002AECD000980F9909
:1024D000C0E90231C0E9004586E700000000244061
:1024E0000000F03F300000000000F0430000E03F3B
:1024F0002DE9FF4F95B09B468946064600250FE221
:10250000252877D100242746F84A0121059400E0C8
:10251000044316F8013F203B01FA03F01042F7D1C3
:1025200030782A2811D06FF02F033078A0F13002D4
:10253000092A16D8059A44F0020402EB820203EB42
:1025400042021044761C0590EFE759F8042B0592DF
:10255000002A03DA504244F40054059044F0020487
:10256000761C30782E2816D116F8010F44F004049A
:102570002A280DD06FF02F023078A0F13003092BFC
:1025800009D807EB870302EB4303C718761CF3E770
:1025900059F8047B761C30786C280FD006DC4C2868
:1025A00017D068280DD06A2814D104E0742810D000
:1025B0007A280FD10DE044F400140AE044F48014AA
:1025C00001E044F440147278824202D104F5801490
:1025D000761C761C307866280BD013DC582877D010
:1025E00009DC002875D04528F6D04628F4D04728C5
:1025F0001AD19DE118E0632835D0642879D0652888
:1026000012D195E1702873D008DC6728F1D06928D1
:102610006FD06E280DD06F2806D1B5E073282CD06E
:10262000752875D0782874D05A46179990476D1C34
:1026300075E1C4F30250022809D003280DD0D9F85F
:10264000001004280DD00D6009F1040967E1D9F8E4
:102650000010EA17C1E90052F6E7D9F800100D8022
:10266000F2E70D70F0E719F8041B8DF80010002058
:102670008DF80100EA46012003E059F804AB4FF061
:10268000FF3061074FF0000102D40DE008F10101B5
:102690008846B9420FDA8045F8DB1AF8081000299D
:1026A000F4D108E008F1010188468142FADB1AF80A
:1026B00008100029F6D105985B46A0EB08072146D3
:1026C0003846179A00F094FA284400EB080507E012
:1026D0004DE029E10DE01AF8010B5A461799904791
:1026E000B8F10108F7D25B4621463846179A13E144
:1026F00042E00A220092C4F302524FF0000A022A7A
:1027000008D059F804CB032A4FEAEC710AD00DE047
:1027100029E02AE009F1070121F00702F2E802C1ED
:10272000914609E00FFA8CFC4FEAEC71042A03D1C0
:102730004FFA8CFC4FEAEC71002907DA0A460021B7
:10274000DCF1000C61EB02012D2202E0220504D530
:102750002B228DF80420012203E0E20701D0202281
:10276000F7E7904659E00A2102E010220DE010211F
:102770004FF0000A00910BE010224FF0000A44F0E5
:1027800004040827009203E008224FF0000A009298
:10279000C4F30252022A05D059F804CB0021032ABF
:1027A00008D009E009F1070121F00702F2E802C1AF
:1027B000914605E01FFA8CFC042A01D10CF0FF0CB5
:1027C0004FF00008220728D5702806D0009B83F020
:1027D000100353EA0A0305D00EE040228DF80420CE
:1027E000012208E05CEA010206D030228DF80420C4
:1027F0008DF8050002229046009B83F0080353EAFF
:102800000A030AD15CEA010201D1620705D5302230
:102810008DF804204FF001087F1E582804D034A002
:1028200003900EA802900DE036A0F9E753466046EB
:10283000009AFDF7CBFC84460398825C0298401E08
:10284000029002705CEA0100F0D1029806A9081A11
:1028500000F1200A600702D524F4803400E001274B
:10286000574502DDA7EB0A0000E0002000EB0A015B
:10287000009005984144401A0590E00306D45B4659
:102880002146179A059800F0B3F90544002706E0A1
:1028900001A85A46C05D179990476D1C7F1C47459B
:1028A000F6DBE0030CD55B462146179A059800F04D
:1028B0009FF9054404E030205A46179990476D1C53
:1028C0000099481E00900029F5DC08E00298029962
:1028D0005A460078491C0291179990476D1CBAF12D
:1028E0000001AAF1010AF1DC65E1000009280100FC
:1028F0003031323334353637383961626364656676
:102900000000000030313233343536373839414237
:10291000434445460000000000F058F90544761C89
:10292000307800287FF4ECAD19B02846BDE8F08F70
:10293000620700D4062709F1070222F0070CFCE821
:102940000223E14603F000485FEA080C02D00FF2D0
:10295000702C0DE05FEA045C02D50FF2682C07E0F2
:102960005FEAC47C02D00FF2602C01E0AFF2700C81
:102970004FF0FF3823F00043CDF850C065280CD04D
:1029800006DC452809D046281DD047283DD13DE02A
:10299000662818D067287ED138E00021112F01DB8E
:1029A000112000E0781CCDE9000106A90EA8FFF770
:1029B000EDFCDDE90F010E9A03910021009207F171
:1029C000010A04914DE04FF000400097CDE901105D
:1029D00006A90EA8FFF7DAFCDDE90F0203920E9BB1
:1029E00011990022DDF80CA00093049211B9791C12
:1029F00000EB010AB7EB0A0004D4C0F1FF3007F185
:102A0000010A0490AAEB0700019044E0012F00DACC
:102A100001270021112F01DD112000E03846CDE90A
:102A2000000106A90EA8FFF7B1FCDDE90F010E9A1F
:102A30000391002104910092BA4621070CD4039916
:102A4000514500DA8A46BAF1010F05DD009AAAF174
:102A50000101515C302908D0B84202DA10F1040FAC
:102A600006DA0121CDE9011015E0AAF10101E9E73B
:102A7000002805DC049901440491AAEB000102E05E
:102A8000411C514500DD8A460499401A401C0190C2
:102A90004FF000400290200704D40198504501DB1C
:102AA000CDF8048000208DF84F0002980DF14F07FB
:102AB000B0F1004F25D02B200E9002984FF0020865
:102AC00000280CDA404202902D200E9007E00A21E7
:102AD0000298FDF7D1FB3031029007F8011DB8F1E3
:102AE0000001A8F10108F2DC02980028EFD1791E5C
:102AF0000E980870307800F0200040F0450007F88C
:102B0000020D12A8C01B00F107081498007800B14C
:102B1000012000EB0A01019801EBE07105984144A6
:102B2000401A401E0590E00306D45B462146179AE2
:102B3000059800F05DF805441498007818B15A46DD
:102B4000179990476D1CE00324D55B462146179AE0
:102B5000059800F04DF805441CE00498002807DBB8
:102B6000DDE90301884203DD0098405C179901E02C
:102B7000179930205A469047049805F10105401CEA
:102B800004900198401E019004D12E205A461799B6
:102B900090476D1CBAF10001AAF1010ADDDC05E0E5
:102BA00017F8010B5A46179990476D1CB8F10001B0
:102BB000A8F10108F4DC5B462146179A0598ABE6BC
:102BC0002D0000002B000000200000002DE9F04146
:102BD000044600251E461746880404D405E03946FD
:102BE0002020B0476D1C641EF9D52846BDE8F08151
:102BF0002DE9F041044600251E469046C80301D544
:102C0000302700E02027880404D505E041463846F7
:102C1000B0476D1C641EF9D52846BDE8F081000060
:102C200013B54FF6FF73012269460248FEF74EFFC7
:102C300000981CBD6C010020FDF7DAFEFFF714F9C7
:102C4000FEF79EFFFFF7C8F8FFF79EF8FEF7B6FF06
:102C5000FFF726F8FFF760F800210A48FEF704FEA8
:102C600004210848FEF700FE5A26074C4FF4FA6587
:102C7000774228462660FDF7ABFD28462760FDF722
:102C8000A7FDF6E74C000020000000200A490023C1
:102C900000280A6804D007DD506308688363704722
:102CA00041F28930506303E0C0F1000000B2536389
:102CB00009688863704700004C0000200000000095
:102CC00000000000010203040607080900000000DC
:102CD00001020304F42C0008000000204C00000056
:102CE0006C230008402D00084C0000206405000003
:102CF0007C23000800000000000000000000A0424B
:102D00000000A040000000000000000000000000E3
:102D10000000000000004040000000000000000033
:102D200000000000000000000000000001000000A2
:102D300010000000000000000024F400000000006B
:040000050800019559
:00000001FF
